:10200000008000207D680000D56C0000656800003D
:1020100000000000000000000000000000000000C0
:1020200000000000000000000000000065680000E3
:10203000000000000000000065680000D16800009A
:10204000656800006568000065680000656800005C
:10205000996C000065680000656800006968000010
:10206000656800001567000065680000656800008D
:10207000656800006568000025670000656800006D
:102080006568000065680000656800005130000068
:1020900000000000656800006568000065680000D9
:1020A00065680000656800006568000065680000FC
:1020B0000000000010B5064C2378002B07D1054B1B
:1020C000002B02D0044800E000BF0123237010BDA4
:1020D000D0010020000000008CEF000008B5084B84
:1020E000002B03D00748084900E000BF07480368F9
:1020F000002B03D0064B002B00D0984708BDC046EC
:10210000000000008CEF0000D4010020C801002076
:1021100000000000014B03607047C04648E2000029
:1021200070470000014B83628361704748E2000002
:1021300010B5034B041C036005F098F8201C10BD7B
:1021400048E2000070B50C4C2368032B13D00B4EF3
:102150000B49301C05F0BEF80A4D301C291C05F057
:10216000DFF8291C084A094801F06AFA206008488B
:1021700004F0C2FBE7E770BD640200202C0A0020D7
:1021800060E200004B00002008000020EC0200206C
:102190008813000073B50C1C0190111C01A8151CBC
:1021A0001E1C01F059F80D4B1D60FA25ED00281C8E
:1021B00004F0A2FB201C04F043FE094B311C186004
:1021C00001A801F049F8074B281C1E6004F094FB9D
:1021D000201C04F035FE044B186073BD540200202F
:1021E00058020020600200200802002037B5284C69
:1021F0002849201C04F011FA274D9622201C291C86
:10220000920104F0F3F9201C012104F0D9F900280F
:1022100002D0201C04F0E9F90122201C002104F066
:102220005AFA0D20012104F083FE0D20012104F053
:10223000D9FE1A4C022307220093201C04230821F4
:1022400001F0DAF8201C01F033FC9621281C8901EA
:1022500005F0C6FF124800F091FDFFF773FF114C27
:10226000114B201C196800F0C7FF104B60781968EB
:10227000237800021843A37800221B041843B423D8
:10228000FFF788FF0D20002104F0ACFE37BDC046EB
:1022900020060020B80B00002C0A0020EC020020D1
:1022A000100200200C020020040000201400002076
:1022B00037B52D2004F0C4FD07F0EAFEEA218905B8
:1022C00007F0D0FB011C07F0ABF909F017FD0D4B2F
:1022D0000B4A08F0B3FE09F063FD0B4D041C0B49DB
:1022E000281C04F0F7FF201C09F008FD0B1C02213C
:1022F000021C0091281C05F033F9201C3EBDC0468D
:102300006666666666660A402C0A0020AAE200003D
:1023100010B52D2004F094FD07F0BAFEEA218905DE
:1023200007F0A0FB011C07F07BF909F0E7FC154B57
:10233000134A08F083FE09F033FD09F0DFFC124A6E
:10234000124B09F00BF9124A124B08F077FE124AB1
:10235000124B08F009FA09F023FD1149041C07F09B
:1023600029F9002807D1201C002107F00FF90028C7
:1023700002D0002400E00A4C201C10BDC046C0461C
:102380006666666666660A409A99999999990140C7
:102390000000000000005940CDCCCCCCCCCC00409B
:1023A0000000C842C046C04613B500230093191C64
:1023B0001A1C0D4804F0E8FE0C4C01235B42062178
:1023C00000930193201C0B1C162200F0BFFC08494F
:1023D000084A201C09F08EFD074800F043FE07481C
:1023E00001F01AFD13BDC046EC01002010020020D0
:1023F00025210000000000200C020020F401002034
:10240000F0B5D34E99B0337F0BAC2371D14B0FA9EC
:102410000B93336A201CA360736AE36000F064FCD2
:10242000149804F0D1F9CC4D002804D1281CCB49D4
:1024300004F062FF0DE0149809F060FCC14BC04A43
:1024400008F0FCFDC04AC14B07F072FE09F0A8FC81
:10245000071C331C2C331B78201C2371C04B0FA985
:102460000B93336B766BA360E66000F056FC149818
:1024700004F0AAF9002804D1281CBA4904F03CFF52
:1024800001E0149B0193FFF743FF061C381C07F083
:1024900083FD0A22011C02A805F06DFD019807F0DA
:1024A0007BFD0A22011C05A805F065FD301C07F024
:1024B00073FD0A22011C08A805F05DFDAA49201C35
:1024C00005F006FD02A9201C05F08AFD011C281C50
:1024D00004F01CFF201C05F0B4FCA449201C05F0EE
:1024E000F7FC05A9201C05F07BFD011C281C04F04D
:1024F0000DFF201C05F0A5FC9D49201C05F0E8FC03
:1025000008A9201C05F06CFD011C281C04F0FEFE2F
:10251000201C05F096FC01210D2004F063FD954E72
:10252000301C01F007FBBC22301C9349FF3201F044
:102530006FFC002825D09149201C05F0C9FC02A998
:10254000201C05F04DFD8E4905F058FD011C301C86
:1025500004F0DCFE201C05F074FC8A49301C04F0F9
:10256000DFFE8949301C04F0DBFE8849301C04F092
:10257000D7FE301C04F0B8FE04F0B8F9844B1860A4
:1025800003E0281C834904F0CBFE01210D2004F058
:1025900029FD784E301C01F0CDFABC22301C764962
:1025A000FF3201F035FC002825D07B49201C05F0C6
:1025B0008FFC05A9201C05F013FD714905F01EFDD7
:1025C000011C301C04F0A2FE201C05F03AFC6D49F1
:1025D000301C04F0A5FE6C49301C04F0A1FE6B49D0
:1025E000301C04F09DFE301C04F07EFE04F07EF9E9
:1025F000674B186003E0281C664904F091FE012136
:102600000D2004F0EFFC5B4E301C01F093FABC226D
:10261000301C5949FF3201F0FBFB002817D05F49FD
:10262000301C04F07DFE5749301C04F079FE5649F9
:10263000301C04F075FE5549301C04F071FE301C4E
:1026400004F052FE04F052F9514B186003E0281CCC
:10265000504904F065FE01210D2004F0C3FC301C3C
:1026600001F068FABC22301C4349FF3201F0D0FB74
:10267000002825D04A49201C05F02AFC08A9201C66
:1026800005F0AEFC3E4905F0B9FC011C301C04F01D
:102690003DFE201C05F0D5FB3A49301C04F040FEFD
:1026A0003949301C04F03CFE3849301C04F038FE37
:1026B000301C04F019FE04F019F9354B186003E0E2
:1026C000281C344904F02CFE01210D2004F08AFC62
:1026D000284C201C01F02EFABC22201C2649FF3277
:1026E00001F096FB00281AD02E49201C04F018FE99
:1026F0002449201C04F014FE2349201C04F010FE81
:102700002249201C04F00CFE201C04F0EDFD04F016
:10271000EDF81F4B01221860234B1A7003E0281CB0
:102720001C4904F0FDFD08A805F08BFB05A805F089
:1027300088FB02A805F085FB19B0F0BDC046C04675
:10274000666666666666F63F000000000000404070
:102750001002002070E400002C0A0020B1E200000A
:10276000B0E40000CCE20000E4E20000EBE2000094
:10277000F1E20000F401002018000020F7E2000060
:1027800047E4000021E300005AE3000076E3000084
:102790005C02002088E300009AE30000CCE3000024
:1027A000F5E300002CE4000048020020C046C046CB
:1027B000F0B58BB004F09AF8002803D104F096F835
:1027C00001280FD95A4C201C03F0A6FE594B186063
:1027D000594B1A68904200D218601968421AF92AB7
:1027E00000D97AE001A8554905F072FB0025544E46
:1027F000301C01F0ADF9041E10D007A8311C05F003
:10280000A1F807A901A805F09DFB07A805F019FB91
:102810004C4801A904F07AFD0125E8E7002D2ED0EF
:10282000494D2B78002B2AD0484907A805F050FBCA
:1028300007A901A805F005FC039BC21D01A904A876
:1028400005F004FC07A805F0FCFA04A805F024FC38
:102850004600311C3E4800F0FFFC3A4F3D49381C11
:1028600004F038FD311C0A22381C04F0A8FD0D20AC
:10287000211C04F0B7FB04A82C7005F0E2FA364CDA
:10288000201C00F059FF051C201C00F083FF0328CA
:1028900004D0324B00221A60FFF754FC04F026F8F3
:1028A0002F4B1B68C01A2F4B984211D9254C2E492B
:1028B000201C04F00FFD0A22291C201C04F061FDDD
:1028C0002A49201C04F02CFDFFF7F2FCFFF798FDCD
:1028D00001A805F0B6FA0BB0F0BDFA211860490066
:1028E000201C03F01DFE201C012103F069FE0028BE
:1028F00015D0201C012103F01FFE1D49606C04F05F
:10290000E9FC656C03F0F2FF0A22011C281C04F0AC
:1029100060FD201C03F046FE201C03F066FE201C18
:10292000022103F0F4FD201C03F044FE5AE7C046E8
:10293000200600204C02002050020020B1E60000DA
:10294000F40100202C0A00204802002082E300004D
:102950000C02002053E40000EC020020640200207E
:102960005C020020102700005FE40000A5E20000E8
:1029700051E40000074B10B5041C417182710649F7
:10298000186806F003FDFA239B005843E060201C02
:1029900010BDC0465800002040420F0038B5041C4E
:1029A0000D1C4079022104F0C3FA03F09FFF024B93
:1029B0006574C018A06038BD30F8FFFF70B5051C05
:1029C0000E1C0024687904F03DFBB04205D1EA6892
:1029D000631C944203D21C1CF4E7201C01E001207C
:1029E000404270BD30B5D1B00D1C041C03F07EFF19
:1029F000002D06D1A168414B421A9A4201D8207C91
:102A00007AE000250221A06025716079E570A5704B
:102A10006570257004F08CFA012003F06DFF607979
:102A2000012104F085FA6079291C04F0DBFAA3790E
:102A3000153B012B03D8324B013BFDD102E01420A2
:102A400003F05AFF6079022104F072FA637C002BD4
:102A500006D030205843032106F098FC0138FDD100
:102A600072B60021201CFFF7A9FF0023013007D018
:102A7000201C0121FFF7A2FF00231D1C013003D100
:102A8000237462B6002037E00021201CFFF796FF78
:102A90006A46A8500121201CFFF790FF00A94B199E
:102AA00058600835A0235B009D42EDD162B600233B
:102AB000DA006946885800A98A185568421C19D05E
:102AC000691C17D0DA10A15C4900C9B2854201D94E
:102AD000012001430133A154282BE9D121786378E7
:102AE0002279CB18A17801205B18E1785B18DBB262
:102AF0009A4200D00020207451B030BDCF070000B2
:102B0000C044000000000000F7B50F1C111C061C9B
:102B1000FFF768FF002874D0B0790B380B2870D805
:102B200006F02AFC06286F6F6F6F6F6F6F6F4A4A4F
:102B3000B07807F0ADFAF678011C73B2002B03DA17
:102B4000374807F0B9F8011C081C09F0D7F8041C35
:102B50000F2030400D1C09F05FF82C4B2A4A08F07A
:102B60006DFA021C0B1C201C291C07F0E1FA09F06D
:102B700017F937E0B278101C019207F089FA09F0D2
:102B8000BDF8041CF0780F2318400D1C09F044F820
:102B90001E4B1D4A08F052FA021C0B1C201C291C5B
:102BA00007F0C6FA09F0FCF8019A53B2002B19DAC3
:102BB00080231B06C01815E0B4787F20F3782040EE
:102BC0000002184307F008FA09F098F80F4B0E4A74
:102BD00008F034FA64B209F0E3F8002C02DA80223B
:102BE00012068018002F0DD009F088F8084A094B0A
:102BF00008F024FA084A094B07F09AFA09F0D0F8CD
:102C000000E00848FEBDC0469A9999999999B93F44
:102C1000CDCCCCCCCCCCFC3F000000000000404030
:102C2000000080BF0000C07F70B5061CFFF7DAFE11
:102C300000282DD0B0790B380B2829D806F09CFB42
:102C4000060628282828282828281919307808F066
:102C5000E3FF041C70780D1C08F0DEFF0F4B0E4ADA
:102C600008F0ECF9021C0B1C201C291C07F060FA70
:102C70000BE0307873780002184307F0ADF909F0E3
:102C80003DF8064B044A08F0D9F909F089F800E04C
:102C9000034870BDC046C0469A9999999999B93F21
:102CA0000000C07FC046C046014B03607047C0466D
:102CB00048E20000014B03607047C04648E2000054
:102CC00010B5034B041C036004F0D0FA201C10BDA7
:102CD00048E2000010B5034B041C036004F0C6FA80
:102CE000201C10BD48E2000070B524260C1C051CF9
:102CF000321C081C002109F077F9EB68266063603C
:102D00000D23A36003F0F2FD002120610A1CA868D6
:102D1000FFF7FAFE6061012070BD70B524260C1C1F
:102D2000051C321C081C002109F05EF9EB682660C6
:102D300063600C23A36003F0D9FD00212061A86823
:102D4000FFF772FF6061012070BD000038B5041C00
:102D5000151CFFF70FFE074B25750833A361049B75
:102D6000201C6362044B24620833A362059B246326
:102D7000636338BD68E40000A8E4000008B53721AB
:102D8000FFF70CFE08BD000010B5007D0C1C0B38D1
:102D90000B2813D806F0F0FA0609121212121212BA
:102DA00012120C0F081C09490AE0081C084907E028
:102DB000081C084904E0081C074901E00749201CD9
:102DC0000B2209F004FA0023E37210BD88E400002E
:102DD0008EE4000094E400009AE40000A0E4000007
:102DE00000B5007D0B380B2809D806F0C5FA060897
:102DF00008080808080808080808024B00E0024B09
:102E00004B6200BD40420F0080841E0038B528226E
:102E10000C1C051C081C002109F0E6F8A868211C00
:102E2000FFF7B2FF0123E360EB68A86823610D237D
:102E30006361211CFFF7D4FFAB68187D0B380B28AA
:102E40001DD806F099FA060D1C1C1C1C1C1C1C1C11
:102E500014160D4BA3610023E3618023DB0511E011
:102E60000A4BA3610A4BE361FC239B050AE0094B73
:102E700000E0094BA361094BE361094B02E0002329
:102E8000A361E361236238BD000048420000704244
:102E90000000A0C10000A0420000FA42000020C2D1
:102EA000CDCCCC3D38B528220C1C051C081C0021BB
:102EB00009F09AF8A868211CFFF766FF0123E36078
:102EC000EB68A86823610C236361211CFFF788FF6E
:102ED000AB68187D0B380B2815D806F04DFA06089C
:102EE00014141414141414140E0E094B00E0094B9E
:102EF000A361094BE361094B08E0094BA36100237F
:102F0000E361084B02E00023A361E361236238BD63
:102F10000000A0420000BE420000A0410000A0400E
:102F20000000C842CDCCCC3DF7B5434E0193335C95
:102F3000041C5BB20D1C0092002B05DA00230B82EF
:102F4000EB7BDB09FCD110E00C234343315C3B4AB3
:102F500049B212785918914207DA315C384A49B2BD
:102F60005918C900895C480611D4335D0C27013318
:102F7000DBB233556743325D304B52B21B78BA181F
:102F80009A4238DA335D5BB20B2B0BDD33E0315DF7
:102F900049B25B18DB00985C00218006800E04F0CB
:102FA00021F8E2E7325D264B52B2BA18D200D25C69
:102FB00053060AD5335D224A5BB2FB18DB00985CEE
:102FC00001218006800E04F00DF82A8A92B2EB7B74
:102FD000DB09FCD1335D5BB2FF18194BFF00DF1931
:102FE0007B68D218009B92B20C335B005A53EB7B88
:102FF000DB09FCD119E02F8ABFB2EB7BDB09FCD1E6
:10300000104B1149186806F0C1F9104B04375843AA
:10301000009B00090C3387420AD280B25B005853F0
:10302000EB7BDB09FCD1FF2333550198A873F7BD77
:10303000BFB25B005F53F3E7690200206802002023
:103040006C0200205800002040420F00204E00007B
:1030500008B500200249021C1023FFF765FF08BDD8
:103060000030004238B50C4B051C1C780B2C0FD8D7
:10307000621C1A70094B04701868094906F086F939
:10308000084BE4005843084B00091C19606001E03C
:10309000FF230370281C38BD680200205800002060
:1030A00040420F00DC0500006C020020F7B50193E0
:1030B0000378041C0E1C171C0B2B34D8081C012190
:1030C00003F036FF2078444DC300595D3F22914301
:1030D00016400E435E5588239B00DF1BFB179B0F9A
:1030E000DF19019E96231B019B1BDA17920FD31841
:1030F0009B10BF10A37067700C2106F047F90C22DB
:10310000C0B2424300239918C900695C4E0606D537
:1031100023784021DB00EA5C0A43EA5403E00133F0
:103120000C2BF0D101E02078FEBD0028F0D12B4B14
:103130002B4A5A805A78D209FCD12A4E022233886F
:1031400093433380F37BDB09FCD1264B01221A80A9
:10315000F37BDB09FCD131880122224B1142FAD1E9
:103160001988402089B2198019880143198018886C
:103170008021C9000143198019790A431A71F37B30
:10318000DB09FCD1184B1949186806F0FFF8FA233F
:103190009B005843134B000980B21883F37B114AFC
:1031A000DB09FBD1124880210903C167114BC02004
:1031B00040001950C42080001F583F023F0A1F5092
:1031C000196010235373138802210B431380F37B80
:1031D000DB09FCD19CE7C0466C020020000C0040DB
:1031E0001C400000003000425800002040420F0008
:1031F00004E100E000E100E008B588229623920097
:103200001B01FFF753FF08BD38B504780B2C1BD802
:103210000123C3568822D31A9B00994208DB02225D
:10322000825696239B009B1A9B008B4200DD0B1C51
:103230005D1F064B0649186806F0A8F84543054B84
:10324000E4002D091C19656038BDC04658000020F7
:1032500040420F006C0200200F4B13B5041C994232
:1032600016DCB420B42902DCC843C017084001238F
:10327000E356882202216156D31A96229200521AEE
:103280009200009200219B00B42204F0CEFD011CAC
:10329000201CFFF7B9FF13BD1F020000437A002B6B
:1032A00004D18372C372C36001234372704730B587
:1032B00085B0041C02AD00680291039204F05EFA2E
:1032C0006B79E179227A00932068002304F0FCFAFC
:1032D00029792068029A04F021FA206804F044FA5F
:1032E00005B030BD70B5041C1826FFF7D7FF207954
:1032F000331C43430D4D0821EB18595603F0BAFE19
:10330000A079331C43430821EB18595603F0B2FE51
:10331000607908214643AD19695603F0ABFE044BB2
:10332000201C06CBFFF7C3FF70BDC046FCE60000C3
:10333000CC02002010B5041C006804F007FA00233A
:10334000637210BD07B5837A00910192002B0DD0F6
:103350009A0706D5EFF310835A425341C37272B6EF
:1033600004E0DA0702D58289034B9A600099019A3A
:10337000FFF79DFF07BDC04600180040837A002B71
:103380000BD09A0704D5C37A002B06D062B604E0AE
:10339000DA0702D58289014BDA60704700180040D5
:1033A00008B5006804F0F3F908BD0000094B0A4AAB
:1033B0000A491A6000225A711A71094B19601621C4
:1033C0001971182199711721597101215A72D971F6
:1033D0001A727047CC02002000093D0084090020C9
:1033E000D4020020014B19627047C046EC02002055
:1033F00008B503F059F808BD10B5064C02A82170B5
:10340000054900780A70054A40B21370044B1870E1
:1034100010BDC0465500002052000020530000207F
:103420005400002030B587B0041C00F04DFD2F4B38
:103430006846009301F0D4F9051E0AD0031C0D3331
:1034400007D0031C10334ED00021062001F095F860
:1034500045E002F0BBFA2649264802F0D3FA211CC7
:1034600000230122293122600B7023616361A36173
:1034700023626362204BE2611A68204B9A4202D9B0
:103480001F4801F08EF80121042001F076F8012197
:10349000052001F072F80121062001F06EF80121EB
:1034A000042001F056F80121052001F052F8012115
:1034B000062001F04EF80120011C01F05EF8012108
:1034C000022001F05AF80121032001F056F80120F2
:1034D000011C01F03EF80220012101F03AF803201E
:1034E000012101F036F8281C07B030BD0D3A00006C
:1034F000E5330000F1330000A00300204F1300006B
:10350000FF0300000368F7B5041C002B01D1FFF78F
:1035100089FFE369002B03D0002323616361A3616A
:1035200001F09AF9251C2935002802DA04202870B8
:103530002AE00023271C2B70283701233B7003F05F
:10354000D5F901902E7807231E4006D103F0CEF95D
:10355000019BC01A0D4B984212D9201C21224D30DC
:10356000002108F041FD2A780323134001D13B706C
:1035700004E001F087FA002001F06AF9287803E0FE
:10358000301C01F065F9DDE7FEBDC0465FEA0000D2
:10359000F0B5171C026885B0041C0E1C1D1C002A07
:1035A00001D1FFF73FFFE369002B03D00023236124
:1035B0006361A361301C08F003FEFF23C1B20093D6
:1035C000301C2B1C3A1C01F0D9F9251C2935002888
:1035D00002DA042028702EE00023221C2B702832EF
:1035E00001231370029203F081F903902F780723CF
:1035F0001F4006D103F07AF9039BC01A0F4B984283
:1036000015D92A780323134001D1029A13704D343F
:1036100000212122201C08F0E7FC301C08F0D0FD1E
:10362000311C021C201C08F0BDFC287803E0381C6B
:1036300001F00EF9DAE705B0F0BDC0465FEA000020
:1036400008B5131C0222FFF7A3FF08BDF0B5171C35
:103650000268A5B0041C00911D1C002A01D1FFF7CF
:10366000E1FE8822002102A808F0BEFC009902A811
:1036700008F09EFD6B460A33DD7701253D331D7052
:10368000002612AB49221E706A44C02313706B4699
:103690004A33A8221A705D70391C13AB02A82A1C89
:1036A0001D7001F0A5F9271C2937B04202DA0B2062
:1036B000387028E00A233B70231C283302221A703A
:1036C0002533181C311C2122019308F08DFC009831
:1036D00008F076FD0099021C019808F063FC201C9C
:1036E000694610304931042200F0BAFC074B2269C8
:1036F0006361A261311C042000F03FFF281C311CD3
:1037000000F03BFF387825B0F0BDC046FFFFFF005A
:1037100013B5081C0C1C01F046F9684601F043F98A
:10372000002300A8C11849795A42013BA1549A1DAF
:10373000F7D1201C16BD000070B5031C28331B7880
:10374000041C002B15D00025002001F081F8256213
:1037500001F01DF9A8420FDB03F0C8F8061C256A2A
:10376000002D0BD103F0C2F8094B801B984209D9F8
:1037700004E06420404209E0281C07E00023206A9E
:10378000236203E0281C01F063F8E8E770BDC0463F
:10379000E7030000036810B5041C002B01D1FFF7FC
:1037A00041FE2934002001F053F8207810BD0000BC
:1037B00030B587B0041C0D1CFFF7A4FE032810D001
:1037C0006946201CFFF7A4FF69464A780B7802A8D7
:1037D000064908F0CBFC201C02A9054A2B1CFFF768
:1037E00035FF201CFFF7D6FF07B030BDD7E400003F
:1037F000E8E4000008B50121FFF7DAFF08BD00008A
:10380000F0B5041C85B0151C132900D1AFE00FD80A
:10381000062900D1D9E005D8042900D0F2E0002320
:10382000D356EEE009296ED0112900D19BE0E9E0E2
:103830002A2909D003D81B2900D1DAE0E2E02C299B
:103840000AD0322949D0DDE00023D356002B00D125
:10385000D8E02934062315E01378012B14D1031C7A
:1038600028331B78012B08D1C169002900D0C9E099
:1038700029340323237004202CE0032B00D0C1E063
:10388000293408232370BDE0002B00D0BAE0021CCD
:1038900028321278012A12D1021CC069062129326D
:1038A0001170002802D023616361A361002461B21A
:1038B0005548013402F056FC0B2CF8D104E0032AE1
:1038C00002D12934072323700121042000F055FE82
:1038D0000120011C00F051FE94E0031C28331E78E7
:1038E000012E00D08EE0EB6812686D6843612934C8
:1038F00003230261856100212370042000F03DFE56
:10390000301C0021E6E7131C63331E78002E23D100
:10391000071C4D37311C2122381C08F065FB281C80
:1039200008F04EFC291C021C381C08F03BFB231C31
:10393000283301221A70281C26616661A66108F0EE
:103940003FFC2B1CC1B26233FF201A780090413B30
:10395000281C01F013F855E0031C29330B221A70C0
:10396000FFF748FF4EE01378002B4BD021E0101CEE
:103970000A30039008F024FC261C2A36071C00217C
:10398000301C212208F030FBBBB2002B04D01A1CE3
:10399000301C039908F006FB626A0523002A0BD14C
:1039A0000123EB562362AA78231C4B331A70EA7862
:1039B0005A702934022365E7EA181179606A0522F2
:1039C000D21A8154013BF7D2EAE7426A002A0AD0B0
:1039D0006B1825331A78606A06235B1A0139C254C2
:1039E0000029F5D16162201C291C4D3008F0E0FB54
:1039F00008E0006A002805D0111C082208F0D2FA5D
:103A00000023236205B0F0BDB403002008B5031CF9
:103A10000A1C0248191CFFF7F3FE08BDEC02002047
:103A2000F7B5061C101C0F1C019203F0C3FB012408
:103A3000051E39D1291C052000F09FFD0220291CFC
:103A400000F09BFD3562381C02F086F9002809DA87
:103A5000211C052000F091FD211C022000F08DFDAD
:103A60002C1C21E002F042FF051C346A002C05D119
:103A700002F03CFF0D4B401B984211D9012105205B
:103A800000F07BFD0121022000F077FD316A002467
:103A9000A14209D0019803F0B3FB3462012403E092
:103AA000201C00F0D5FEE0E7201CFEBD1F4E0000EC
:103AB00008B50220012100F085FF08BD13B50024E0
:103AC000211C221C231C0094064803F05DFB064BBE
:103AD000FF211A1C283214701A1C293211701C6024
:103AE00013BDC046E4020020EC0200200020704715
:103AF00013B502686B46D97107335468191C01224B
:103B0000A04716BD13B503686C4607345B6A211CD9
:103B100001229847012801D1207801E0012040428C
:103B200016BD7047007C40B20130431E9841C0B2C0
:103B30007047000010B510214156041C002904DB19
:103B4000024802F00FFBFF23237410BDB4030020D2
:103B500008B51021415600204B1C02D0014802F04C
:103B6000A4FA08BDB4030020036870B51B69041CE7
:103B70000E1C151C984780B2002807D010216156F2
:103B8000321C2B1C034802F090FB01E00120404254
:103B900070BDC046B4030020036810B51B69041C47
:103BA0009847002805D010216156034802F04EFBCB
:103BB00001E00120404210BDB403002008B51021EF
:103BC0004156002903DB034802F060FA00E00020C0
:103BD00008BDC046B403002013B510228A56041C49
:103BE000531C06D100230093191C1A1C03F0CCFAB5
:103BF00002E0024902F070FA201C16BDB403002056
:103C000070B510214156051C00204B1C0DD0074CEF
:103C1000201C02F06BFA1021061C6956201C02F0D1
:103C200065FA36020012304380B270BDB403002042
:103C300070B5037C041C0E1C151C7F2B06D8002AB3
:103C400004D00368DB6A9847002803D1012363602E
:103C5000002009E0102161560448321C2B1C02F0A0
:103C60004BFA0028F2DD281C70BDC046B4030020CA
:103C700000234360FA239B008360034B08330360F7
:103C8000FF2303747047C046F0E40000F0B589B02C
:103C900004AD039302232B804968036852BA6A80FB
:103CA0006960DB6A041C9847002803D02368201C45
:103CB0009B6A9847184E0221301C0122039B02F098
:103CC00089F9071C207423D4039BDB070ED50E9BB8
:103CD000002B0BD0181C00F0D4F90E9B022200938D
:103CE0000190391C301C131C02F085F910212A1C8C
:103CF0006156301C102302F08BF9051C0120002DA9
:103D000007D110216156301C02F02CFAFF232374D6
:103D1000002009B0F0BDC046B40300201FB5064B1B
:103D20004968029300230391009302A90123FFF73E
:103D3000ADFF05B000BDC04658EB00001FB5054BF8
:103D40004968029300230391009302A9FFF79EFFA5
:103D500005B000BD58EB0000F0B587B00C1C071C87
:103D600002A8161C1D1C03F007FA0A48211C02AA0F
:103D7000FFF756FE00280AD0074B00940493039BDC
:103D8000381C059304A9321C2B1CFFF77FFF07B0DA
:103D9000F0BDC046EC02002058EB000008B501233E
:103DA000FFF7DAFF08BD08B50023FFF7D5FF08BD10
:103DB00007B5002300930348191C1A1C03F0E4F90B
:103DC00007BDC0465C03002007B5002300930348ED
:103DD000191C1A1C03F0D8F907BDC0466403002063
:103DE00007B5002300930348191C1A1C03F0CCF9F3
:103DF00007BDC0466C03002007B54968034B01911D
:103E000069460093FFF78AFF0EBDC04658EB0000DD
:103E100008B5FFF7C3FF08BD10B5041CFFF728FF66
:103E2000024B201C0833236010BDC04638E500005B
:103E300007B5002300930348191C1A1C03F0A4F9CA
:103E400007BDC0467403002007B500230093034854
:103E5000191C1A1C03F098F907BDC0467C0300200A
:103E600008B5034B1B68002B00D0984708BDC0461F
:103E70008403002008B502F011FE08BD08B502F069
:103E8000C7FE08BD10B5041C002C04D0012002F0B0
:103E900033FD013CF8E710BD10B50A4C0020205658
:103EA00000280DDB002103F09DF86420FFF7EAFFF6
:103EB00000202056012103F095F86420FFF7E2FF6F
:103EC00010BDC0465300002010B5114B0022114C0C
:103ED0001A6000202056904207DB012103F028F8E9
:103EE00000202056012103F07DF80B4B00201856CE
:103EF000002103F01DF8094B00201856002802DBB2
:103F0000022103F015F8FFF7C7FF002010BDC046DF
:103F100084030020530000205200002054000020A1
:103F200008B5054B05491860054B002018560322BB
:103F3000FFF7A0FF08BDC04684030020613E0000DB
:103F40005200002008B5074B002806D00020185664
:103F500005490322FFF78EFF03E000201856FFF704
:103F60008DFF08BD52000020613E000010B50A48D8
:103F7000FFF7B8F9094C00202056012102F0D8FFC4
:103F800000202056012103F02DF8FFF785FF0120C6
:103F9000FFF778FF002010BDD4020020550000205C
:103FA000F0B585B003283DD16B460C680F33002275
:103FB0000E894D681A70944206D0954230D1012185
:103FC000019500911D1C03E00122009401921C1C2C
:103FD000164F174B381C06CBFFF7B4F9154B0020D2
:103FE0001856002102F0FEFF002E0FD02178381C59
:103FF000FFF7D6F9009928704B424B410199013ED9
:10400000ED184B424B41B6B2E418EDE7094A0020E7
:104010001056012102F0E6FF381CFFF7AFF902E06D
:10402000FA2600E0FF2670B205B0F0BDD4020020F1
:10403000880300205500002008B50248FFF77AF9F0
:10404000002008BDD4020020034B044A1A6000225D
:104050005A711A717047C04688030020001BB700D0
:1040600010B500239A4203D0CC5CC4540133F9E765
:1040700010BD8318002A03D0017001309842FBD193
:104080007047021C031C1978981A80B2002901D0CD
:104090000133F8E770470000024BDA780132D2B200
:1040A000DA707047201000207047000007B50B4AF7
:1040B000002313700A4A01209370FFF743FF094859
:1040C00001A900F019FF002806D1019B0221194324
:1040D0000448019100F014FF40B20EBD900300208F
:1040E000201000207010000010B50B4C0020A378A9
:1040F00083420FD16378834205D063780020013377
:10410000DBB2637006E02378002BF6D000F089FD67
:104110000028F2D040B210BD20100020014B1870D2
:104120007047C04620100020044B5A78002A03D064
:104130005A78013AD2B25A700020704720100020FD
:1041400008B5094B5A78002A03D05A78013AD2B2FE
:104150005A705A780020824204D11B78834201D0E1
:1041600000F030FD40B208BD2010002010B5064C14
:104170000021201C2822FFF77CFF0448FFF7D0FE17
:10418000034B0020E36110BD201000209940000087
:10419000A9400000F0B58BB01D1C10AB0F1C02CB6A
:1041A00002921B887F22019312AB1B883A40039333
:1041B00006AB5A70082218705A80061C5A880029CB
:1041C00004D001998A1803998A1800E0AA1892B2BB
:1041D0005A80FFF789FF031C002B00D095E06A4648
:1041E0000893D3820793079B3F021E430796079BC2
:1041F00006AE1F430797079A738845481B0413436D
:104200000793079900F07CFE041E00D07AE0079027
:10421000079B02221343079307993E4800F070FE64
:10422000041E6FD16B460890D8826C4616342288E3
:10423000394B9A4205D8374807A900F05DFE00289F
:1042400003D0089B002B1BD158E0F4232288FF33B6
:104250009A4203D901202388FFF714FE079F022307
:104260001F4007D12D4808A900F046FE041EE8D0E3
:10427000089747E06B46DA8A013292B2DA82D4E7D5
:10428000089B311C0993738808229BB2738009989C
:1042900000F05AFE041E35D1099B02990833099398
:1042A000002908D009982A1C00F04EFE041E29D1CE
:1042B000099BEB180993109A002A0FD00399099BC8
:1042C0004D1BED180995111C0998019A00F03CFE50
:1042D000041E17D1099B019AD3180993089B022247
:1042E0009B000793079B0E4813430793079900F021
:1042F00007FE041E06D1FFF723FF06E0FFF720FFAD
:10430000FD2002E0FFF710FF201C40B20BB0F0BD13
:104310008C10000078100000E70300000004150076
:104320006C100000F0B5534B87B01A78002A04D106
:10433000514BDA781D1C002A01D1002696E0DA786C
:10434000013AD2B2DA704D4803A900F0D5FD061E3D
:1043500000D083E0039B0122134200D17EE0FFF7EF
:10436000F1FD039B0122934303930399434800F01B
:10437000C7FD061E72D10123AB70039BFE269B0472
:104380001B0D01936AD0059005A93D4800F0B4FDCE
:10439000071E0ED1019A059804AC6860211CAA6022
:1043A000042200F0B1FD6388071C9BB2061C6380E9
:1043B00003D00120FFF7C6FD4FE06388019A9342C6
:1043C00008D06388D31A042B04DD0120FFF7BAFD5F
:1043D000FA2742E02378012B04D1EB68002B31D07F
:1043E000EB6827E02378022B04D12B69002B29D01E
:1043F0002B691FE02378042B04D16B69002B21D09B
:104400006B6917E02378062B04D12B6A002B19D097
:104410002B6A0FE02378072B04D1AB69002B11D056
:10442000AB6907E02378FA27052B16D16B6A002BBE
:1044300008D06B6A60786188059A0839C0B289B281
:10444000083298470B4A1378002B07D1AB78002B22
:1044500004D0FFF72BFE071E00D03E1C054A137840
:10446000002B03D1002E00D06DE761E770B207B0DA
:10447000F0BDC04690030020201000207010000006
:1044800084100000F8B51D1C002803D0002901D0BD
:10449000002A02D1002D18D11AE00F4CA3689A42CD
:1044A00016D86368984213D36368A7688618FB1808
:1044B0009E420DD800F028FD00280AD16368A2684A
:1044C000D318B34201D0002D03D0FFF7EFFD00E079
:1044D000F42040B2F8BDC04620100020013800B5DD
:1044E000F423062814D80B4B04F046FF06040A08F0
:1044F000100C0E0019610AE0D96008E0596106E06D
:10450000D96104E0196202E0996100E05962002378
:1045100058B200BD20100020062815D80F2304280B
:1045200015D01023052812D0122306280FD00323FC
:1045300000280CD00423012809D00523022806D026
:10454000032803D1062302E0FF2300E0FE2358B234
:10455000704738B5051C0C1CFFF7C6FD00280AD1B2
:10456000281CFFF7D9FF002803DBC0B2211C00F094
:1045700045FCFFF7E5FD40B238BD38B5051C0C1C05
:10458000FFF7B2FD00280AD1281CFFF7C5FF00285D
:1045900003DBC0B2211C00F04BFCFFF7D1FD40B2A1
:1045A00038BD7FB500230590052000930193029349
:1045B000011C05AA0423FFF7EDFD07B000BD0000B4
:1045C00070B5041C9AB0151C2C287BD01B2804D174
:1045D000101C01A90822002384E0062803D1101C26
:1045E00001A930227DE00E2800D1A1E0322815D1AA
:1045F000504B10221968504B994200D91422281CA4
:1046000001A90023FFF73EFF002800D090E04B4BAC
:104610001B68002B00D18BE032206CE02F2808D1E2
:1046200001A800216422FFF724FD281C01A96422AF
:10463000D1E734280DD1101C01A904220023FFF773
:1046400021FF011E74D13D4B1B68002B70D0201C34
:104650006DE0112814D13A4A002301AC1370281CD4
:10466000211C0422FFF70EFF002861D1354B227870
:104670001A70324B1B68002B5AD01120211C56E0B7
:1046800013280DD1101C01A92C220023FFF7FAFEDC
:1046900000284DD1294B1B68002B49D013202AE05C
:1046A00004280DD1101C01A904220023FFF7EAFE03
:1046B00000283DD1214B1B68002B39D004201AE083
:1046C000652803D1281C01A9042284E7092803D105
:1046D000101C01A9642204E02A280ED1101C01A993
:1046E00004220123FFF7CEFE002821D1134B1B68C3
:1046F000002B1DD0201C01A919E0202818D101AEE3
:10470000101C311C08220023FFF7BCFE00280FD12B
:10471000281C0830B28801990123FFF7B3FE002856
:1047200006D1064B1B68002B02D0201C311C984779
:104730001AB070BDA00300204F13000094030020A6
:10474000980300209903002010B5041E3BD0FFF70A
:1047500098FC002837D0201CFFF793FC202832D883
:10476000A31CDB7F013B0D2B2DD8231C41331B7871
:10477000002B09D1231C42331B78002B04D1231CAE
:1047800043331B78002B1ED0231C3F331B78012B97
:1047900001D1002021E0032B17D1E31CDB7F013B7B
:1047A000032B10D8231DDB7F102293430A2B0AD141
:1047B0002434201CFFF765FC002804D0201CFFF7E0
:1047C00060FC1A28E5D9F42007E0022BFBD1043461
:1047D000E37F083B382BDCD9F5E740B210BD000081
:1047E00070B58CB06B460126DE710733002824D0EB
:1047F0000168144A00251160134A181C157000F056
:1048000073FC041EAC4219D1FFF7B0FC041EAC428D
:104810000FD10E49301CFFF761FE02A800F00AFC20
:10482000031C041C0C3309D102A800F0ADFB041CCE
:1048300004E0281C00F090FC00E0F42460B20CB00E
:1048400070BDC0469403002098030020C1450000BD
:1048500008B5FFF767FD08BD1FB50023009301935E
:10486000029329211A1C0120FFF794FC05B000BD1A
:10487000F0B5A5B01C1C2AAB1B88069005932BAB8A
:104880001B780F1C161C0793012A03D17B1E1F2BBC
:104890001BD901E0002C01D1F4206CE0022AF5D1F3
:1048A000201CFFF7EEFB4028F0D10023E25C111C36
:1048B00030393629F0D80A390629EDD9473A192A6C
:1048C000EAD90133402BF1D1E0E7059B013B0D2BE9
:1048D00002D90599FF29DFD109AD68463A1C6A3033
:1048E000EF190699FFF7BCFB3B1C403300279F7173
:1048F000059A6B462A33DA87079A531E9A416B460C
:104900008B331A70263B1E70032E13D123782B7025
:10491000032BC1D862781023111C6A7099430A29AD
:10492000BAD16846A11C2630FFF79AFB6378EB18D2
:104930009F7016E0022E0AD1201CFFF7A2FB431E37
:104940009BB23F2BA8D8421C211C281C04E0042E3B
:1049500005D1281C211C3E22FFF782FB01E0012E1D
:104960009AD10023009301930293012028212A1C4D
:104970006C23FFF70FFC40B225B0F0BD13B504ACBB
:104980002488009400240194FFF772FF16BD1FB520
:10499000002300930193029303211A1C0120FFF7C7
:1049A000F9FB05B000BD10B5041CFFF79DFB002806
:1049B00006D1201C00F056FA002801D1FFF7C0FBF9
:1049C00040B210BD30B587B005AA002310705170F9
:1049D000041C0093019302932D2104230120FFF76F
:1049E000D9FB051C201CFFF799FB281C07B030BD24
:1049F000F0B5051CB9B00C1C161C002837D0FFF709
:104A0000A3FE071CF420002F32D105A8291C882200
:104A1000FFF726FB201CFFF734FB002827D0002CD3
:104A200025D027AD211C4022281CFFF719FB37ABEE
:104A30001E70114B114A1F70114B1968CC23914203
:104A40000BD86B461633DA7F17A8013ADA77211CA8
:104A50004022FFF705FB2E708A230022009201926C
:104A60000292882105AA0120FFF794FB00E0F420C0
:104A700040B239B0F0BDC046980300204F1300008B
:104A8000A00300201FB5002300930193029305218A
:104A90001A1C0120FFF77EFB05B000BD13B5802472
:104AA00064000443A520211C400100F029FAA52040
:104AB0000023400101A9019300F01EFA0028F1D162
:104AC000019BA342EED116BD07B50023114801A9F1
:104AD000019300F011FA002819D1019B80214900AF
:104AE00019430C48019100F00BFA00280FD1D02097
:104AF000400101A900F000FA002808D1019B8021A3
:104B00004902D02019434001019100F0F9F940B267
:104B10000EBDC04608140000F7B5214D2E682C1CB0
:104B2000002E3AD180204001291C00F0E5F9071E33
:104B300027D11C4801A900F0DFF9061E01D02F6023
:104B400029E02B68184A934204D1019A012A1AD00D
:104B5000164B08E0164A934209D1019B032B12D051
:104B6000042B02D1134B23600DE0134BFBE7134AD8
:104B7000934208D1EC208003291C00F0BDF90028E5
:104B800001D02E6007E022680D4B1340A022D20214
:104B90001343236001E0002000E02068FEBDC04612
:104BA0009C030020F4130000A0021000A1021000DA
:104BB000B0021000B1021000B2021000F0001000AC
:104BC000FFFFF0FF13B5102001A900F095F90028B0
:104BD00025D1019B01242342F5D1201C01A900F01D
:104BE0008BF900281BD101990223194206D10B2011
:104BF00001A900F081F9002808D010E09943201C99
:104C0000019100F07DF90028F1D008E0019901231D
:104C1000194204D099430B20019100F071F940B280
:104C200016BD37B500230B2069460093019300F0B1
:104C300063F9041E31D1009B01210B4206D00120F3
:104C4000694600F059F9041E07D026E019430B20ED
:104C500000F056F9041EF2D01FE0009B02210B4227
:104C600001D0052506E01943012000F049F9041E92
:104C7000F7D012E00F2001A900F03EF9041E0CD17C
:104C8000019B5B0707D40220013DFFF7FBF8002DD5
:104C9000F0D1FC2401E000F027F960B23EBD000035
:104CA00038B5041C274800F023F9002803DB012055
:104CB000FFF7E8F8F6E7244800F01AF9C30709D52A
:104CC000022C15D12149224800F01AF980212148EF
:104CD00049031EE0204D0120FFF7D4F8013D1F4895
:104CE00000F006F9002D2AD01D4B9842F3D1E7E7DA
:104CF000032C06D11549164800F002F91548002189
:104D000007E014481749042C03D100F0F9F8802477
:104D100002E000F0F5F80024FFF7FEFE124B00055C
:104D2000000D984202D90220204300E0201CFFF72A
:104D3000B5FE0A480D4900F0E3F8002000E0FB2032
:104D400040B238BD14100000BC0702007DD51C3CE9
:104D5000AC0702008C100000D10700000C000C0012
:104D60009ED0AD10521352139F030000612F52EFDB
:104D700037B5134B02380093124B01931D1C0128C9
:104D800003D8114B0093114B0193FA24E400002047
:104D9000019B83420AD00220FFF774F8013C00987F
:104DA00000F0A6F8002CF3D1FB2407E0019B0024BF
:104DB000AB4203D10248211C00F0A2F860B23EBD14
:104DC0008C10000036265302AC070200C3C15DD729
:104DD00007B5A0200023400101A9019300F08CF841
:104DE000002807D1019B0449A020194040010191EE
:104DF00000F086F840B20EBDFFFBFFFF37B5041C84
:104E00000D1C0A4801A900F077F800280CD10122F6
:104E1000019BA240002D01D0134300E09343019376
:104E20000248019900F06CF840B23EBD0801020052
:104E300037B5041C0D1C0A4801A900F05DF80028D4
:104E40000CD10122019BA240002D01D0134300E0B0
:104E5000934301930248019900F052F840B23EBDDD
:104E60000001020030B587B00023041C01A91848D6
:104E70000493059300F040F8002825D1019B002BF6
:104E80000BD0C0208002184304A9082200F03CF88F
:104E9000002819D1049A019205E00E4801A900F0FA
:104EA0002BF8002810D1019AC02093B28002184339
:104EB00002A90622019300F027F802A9051C062288
:104EC000201CFFF7CDF8281C40B207B030BDC0460B
:104ED00008000C009C14000008B5FFF747F808BD57
:104EE00008B5FFF7A9F808BD08B500F0DAFA08BD63
:104EF00008B500F0EBFA08BD08B500F0EDFA08BD02
:104F000008B500F0F3FA08BDF7B50E4B051C1C8878
:104F10000191083C161CA4B20027019BD919A64296
:104F200004D8B2B2281C00F02BFB09E0281C221C7C
:104F300000F026FB002803D1361B3F192D19ECE7A2
:104F400040B2FEBD56000020F7B50E4B051C1C8874
:104F50000191083C161CA4B20027019BD919A64256
:104F600004D8B2B2281C00F05DFB09E0281C221C0A
:104F700000F058FB002803D1361B3F192D19ECE730
:104F800040B2FEBD5600002073B50023041C01A9E9
:104F900022480193FFF7B0FF214B019A061C9A4269
:104FA00004D1204801A9FFF7A7FF061C019B0F258C
:104FB0001A0C91B2080A2A400909294062729AB271
:104FC0002172110A12092A402B4021716271A371CA
:104FD000E071FFF7A1FD002322792384A379617991
:104FE00012022B4013430901FF2211400B430E49CB
:104FF00020600B60E179607A090205400D43217A57
:1050000009010A4009492A438A4200D9F326084A7D
:10501000934200D8F32670B276BDC046AC070200BA
:10502000C3C15DD748100000A00300205213000048
:10503000511300007FB5002102AD041C01910291C3
:105040006960884201D1002042E02822FFF711F870
:10505000214801A9FFF750FF002839D10198002805
:1050600001D1F42034E0C026B6023043291C0822C6
:10507000FFF74AFF00282BD1A88801900028F0D024
:105080003043211C2822FFF73FFF002820D122793E
:10509000A3790F201202034013436279FF2112010A
:1050A0000A4013430D4A1360627AE5790240207A80
:1050B0002D0200012A4301400A43002BD1D0002ACF
:1050C000CFD007498A4202D8064A9342BBD8F32080
:1050D00040B204B070BDC04608000C00A003002020
:1050E000521300005113000038B5002803D0057892
:1050F0006B1E032B00D901250020FFF7EDFE041ED7
:1051000028D1FFF709FDFF242401E82320409B005C
:10511000984207D100F0F4F9281CFFF7C1FD041EE6
:1051200016D108E0FFF7F8FCAC2320409B00F024E8
:1051300098420DD1EEE7281CFFF71AFE041E07D196
:10514000023D012D06D9FFF7BFFC002802D0041C48
:10515000FFF7C6FE60B238BD10B5FFF739FE041E7A
:1051600009D100F09DFE041E05D1FFF7B9FE041E13
:1051700001D100F0A5F960B210BD1FB501AB0190DF
:10518000002219810320191C0292FEF709FF05B0C5
:1051900000BD1FB501AB0022029019810320191C2C
:1051A0000192FEF7FDFE05B000BD73B56C46061C0E
:1051B0000734CF2806D0031C3B33DBB2012B01D9C7
:1051C0000B250EE0201C0121FFF7E3FF0028F7D09C
:1051D00000201CE02378B3420AD0013DEDB2002D3F
:1051E00006D0201C0121FFF7D4FF0028F2D0EFE702
:1051F0000B25201C0121FFF7CCFF0028E8D12378E4
:10520000002B03D0013DEDB2002DF2D1012040B2C0
:1052100076BD0000F0B585B000900C1C019200270F
:105220008026B601B44200D8A6B20A2568460B30E3
:105230000121FFF7AEFF002801D0002020E06A46E0
:10524000D37A1B090F2B05D0013DADB22BB2013330
:10525000ECD1F2E72DB2002DEFDD009BB6B238B2F3
:105260001818311CFFF795FF0028E6D1019A002A93
:1052700009D0A41BF319A4B29FB2002CD0D10120F5
:1052800040B205B0F0BD054B1B78002BF1D103A84F
:105290000221FFF77EFF0028EBD0CEE7A403002019
:1052A00030B585B008AC257801AC2070C1380E2827
:1052B00057D804F061F82121360E19192B2B480814
:1052C000565656561B000B0C63700B0AA370E17008
:1052D00010E00B0ADBB2002D02D0802252421343B1
:1052E0006370A170002304E0002300E0FF236370DB
:1052F000A370E370052138E00A0C62700A0AA270FC
:105300001A0AE1702271637107212EE00A0C6270A3
:105310000A0AA2701A0C22711A0AE1706271A37152
:105320000FE00B0ADBB2002D02D080204042034385
:105330006370130EE370130C2371130AA170637171
:10534000A271082111E00B0C63700B0AA370130EFD
:105350002371130C6371130AE170A371E2710921C7
:1053600003E0002040B205B030BD0D4B4A1E1B7853
:10537000002B0DD17F2001334000994206D0E51863
:10538000013D2D786840074D285CF4E7A05400E00B
:10539000D1B2201CFFF7F1FE43425841C0B2E1E711
:1053A000A403002080E50000F0B585B0071C039140
:1053B0000A25302F02D80123C32601E00023C92685
:1053C0000093301C391C039A0423FFF769FF041E65
:1053D000012C05D1301CFFF7E8FE041E012C13D070
:1053E0000120FEF74FFD00230093191C1A1CCF204B
:1053F000FFF756FF013DCF20FFF7D7FEEDB20120AA
:10540000FEF740FD002DD4D160B205B0F0BDF0B57F
:1054100087B0029003910A27029AFF2A02D8012638
:10542000C42501E00026CA250096281C0299002206
:105430000423FFF735FF041E012C1DD1281CFFF7A4
:10544000B4FE041E012C17D105AD281C0421321C0A
:10545000FFF7E0FE041E012C0ED16A78AB78120231
:105460001B0413432A781343EA7812061343039A62
:10547000136060B207B0F0BD0120FEF703FD00230A
:105480000093191C1A1CCF20FFF70AFFCF20FFF74B
:105490008CFE0120FEF7F6FC7B1EDFB2002FBBD195
:1054A000E7E713B50024211C221C231C0094CF2005
:1054B000FFF7F6FECF20FFF778FE201C16BD000098
:1054C000014B002018707047A403002007B501A904
:1054D000FFF79DFF01980EBD08B5FFF798FF012863
:1054E00001D1002000E0FA2040B208BD08B5FFF766
:1054F0005BFF012801D1002000E0FA2040B208BD86
:1055000013B51D4C00231D4801A901932370FFF71B
:105510007EFF002803D02378002B09D015E001235B
:10552000164801A92370FFF772FF0028F3D11DE090
:10553000019A7C239A435021114310480191FFF7AF
:1055400033FF002812D001232370802040016946D8
:10555000FFF75DFF00280BD00848FFF7B7FF702367
:105560009843502101430548FFF7C0FF002000E0A9
:10557000FA2040B216BDC046A403002024E8000073
:10558000F0B5151C89B00022059004910A270392FA
:10559000012D01D10395022500260096C82005990A
:1055A000321C2B1CFFF77CFE041E012C1CD1C820D2
:1055B000FFF7FBFD041E012C16D1039BB3420AD05A
:1055C000321C07A8291CFFF725FE6A46137F049AA0
:1055D000041C137005E00498291C039AFFF71AFEB7
:1055E000041C63B2012B13D00120FEF74BFC0023F7
:1055F0000093191C1A1CCF20FFF752FECF20FFF793
:10560000D4FD0120FEF73EFC7B1EDFB2002FBFD190
:1056100064B2012C01D1002000E0FA2040B209B0B0
:10562000F0BD0000F0B50A2389B004900591151C67
:105630000393012D00D1022500260096C72004996E
:10564000321C2B1CFFF72CFE012854D1C720FFF77A
:10565000ACFD01284FD107AB1E802C1C8023221CDF
:105660009B019C4200D91A1C92B20292002E04D1D6
:1056700003229C4205D9012203E00022A3425241A9
:105680000232102368465B421B301A43012102702C
:10569000FFF773FD00282ED1059B30B21818029930
:1056A000FFF76BFD002826D1204F3B78002B07D059
:1056B000029BE41A9E19A4B2B6B2002CCED106E029
:1056C00007A80221FFF759FD0028F1D013E03E782A
:1056D00007A8731E9E410236311CFFF75AFD0028B1
:1056E00009D107AB9E19731E1B78002B03D1023E14
:1056F0003378C32B16D00120FEF7C4FB00230093A0
:10570000191C1A1CCF20FFF7CBFDCF20FFF74DFD52
:105710000120FEF7B7FB039B013BDBB20393002B99
:1057200087D1FA2460B209B0F0BDC046A4030020BE
:10573000F0B50F1C9BB0141C412801D0542816D181
:1057400009AD201C291C04220023FEF79BFE002823
:1057500000D02CE16B7805AA1370964B19680029CC
:1057600000D124E100201B682856012117E04228BF
:1057700017D109AD101C291C04220023FEF782FE5C
:10578000002800D013E16B7805AA1370894B1968C3
:10579000002900D10BE100201B6828560221984700
:1057A00005E143283FD105AD101C291C0C22002324
:1057B000FEF768FE002800D0F9E0697A48B20028B8
:1057C0001FDB0823EB567C4A1B01D318DE7A00014D
:1057D0001318F6B2DE7201269E726C89083CA4B2E0
:1057E0001C81764B1C88A419A4B21C801C88002C38
:1057F00003D11C88A419A4B21C801B8810189BB26A
:10580000C38009AA0223117093806B886968D380D2
:10581000684B91601968002900D1C8E008201B6816
:1058200028560421BBE7442801D04B2821D109ADDB
:10583000201C291C04220023FEF724FE002800D08F
:10584000B5E0287805AA10706B785370002B07D14B
:10585000698843B2584C08391B0189B2E318198191
:10586000544B1968002900D1A1E01B6840B2052102
:1058700095E74A2812D1101C09A944220023FEF7FB
:1058800001FE002800D092E04D4B1A68002A00D19A
:105890008DE01B68199909A8984788E0462803D02D
:1058A000482803D04D2847D1062600E0092605AD3B
:1058B0001022201C291C0023FEF7E4FD021E76D1D5
:1058C000EB890C20019328563B490301CB18009328
:1058D0001A736B89298903938C4669886D6809ABB3
:1058E000DD60009D5981E988019D8D421CD1614692
:1058F0000DB23049002D0BDDBD4209DA314D0127D3
:105900002F7065469D80039DDA8064191C6003E05A
:1059100062469A80002209920A68002A47D00C68E1
:105920001A1C311CA04742E0102F40D9101C111C3A
:105930000123FEF7A7FD3AE0452803D0472803D00E
:105940004C281ED1072600E0082609AD201C291C82
:1059500008220023FEF796FD002828D128786B88BE
:1059600005AA40B2144CA98813800301E318DB8810
:1059700099421CD10F4B1968002918D01B68311CA3
:105980000DE7522813D109AD101C291C1422012344
:10599000FEF778FD00280AD10B4B696819601A6878
:1059A000002A04D01B682868A9682A7C98471BB085
:1059B000F0BDC046FC1000204C100020A8030020C1
:1059C00004110020900300200011002038B5094D7B
:1059D0002C78E4B2002C0CD10748211CB022FEF731
:1059E00048FB02200549FEF779FD01232B70044B8B
:1059F0001C8038BDA70300204C1000203157000048
:105A0000A8030020024B1860024B19607047C04683
:105A1000FC10002004110020F0B5171C89B00228EA
:105A20005FD101291AD10726304D07212B782C7818
:105A3000DBB2287805932E4B24010130E41803F0E3
:105A400049FDC9B22970A37A002B02D1059BDDB2B2
:105A50001EE0013EF6B2002EE6D142E0022940D11E
:105A60000422244B24491D781C7803202401641847
:105A70001978EDB2013101401970A37A002B02D1DF
:105A80000735EDB204E0013AD2B2002AE9D128E0AC
:105A90006BB2002B26DB1022201C0021FEF7E9FA56
:105AA0000123A372154B1A88013292B21A801A8808
:105AB000002A03D11A88013292B21A801B889BB245
:105AC000E380FB070ED52123E37207AA002315709C
:105AD000502100930193029302200423FEF75AFB06
:105AE00000E0FF2568B209B0F0BDC046A603002063
:105AF0004C100020A5030020BC100020A8030020AB
:105B0000F0B5141C89B000282CDB00292AD0174FCF
:105B10000601BB199A7A0833D2B2012A22D1002C8D
:105B200020D0DC784425A446674605AC174202D055
:105B3000DB784B25637220720822201CFEF790FA56
:105B40000A4F0220BE19F388291C638100230093A9
:105B500001930293221C0C23FEF71CFB002802D0A9
:105B6000F72000E0FA2040B209B0F0BD4C10002050
:105B7000F0B50D1C89B0002835DB002933D0AF23E8
:105B8000DB009A422FD81A4906018C19231C0833CE
:105B90009B78012B27D104AB18705A80E4889C8134
:105BA0004424062800DC50248919CE7A4520F707C2
:105BB0000AD50C890F49A4B208680F49884201D957
:105BC0004C2001E04C205524802101430192009596
:105BD0001A1C029410230220FEF7DCFA00239842DC
:105BE00002D0064B00E0064B18B209B0F0BDC0462B
:105BF0004C100020A00300203F130000F2FF000023
:105C0000FAFF0000F0B587B000282CDB184F050123
:105C10007C19A67AA446F6B20834012E23D1E951A4
:105C200061468A802179002291421DD12671E27855
:105C30004D21324200D14621002B01D101235B428C
:105C400004AA107104937D19EB880024D3800220EC
:105C50000094019402940823FEF79CFA221CA042AF
:105C600002D0044A00E0044A10B207B0F0BDC046BA
:105C70004C100020F2FF0000FAFF0000F0B587B0E2
:105C8000002824DB144E05017419A77A211CFFB2E9
:105C90000831012F1BD105AA1070E388538000231F
:105CA0008B70E380C8784E21384200D1492100939F
:105CB0000193029302200423FEF76CFA041E00D025
:105CC000F724701900211022FEF7D3F900E0FA241E
:105CD00060B207B0F0BDC0464C100020F0B589B0EE
:105CE000049200282EDB194A050157193C1C083480
:105CF000A6789446F6B2012E24D1A278002A01D1CA
:105D0000002320E06246A950049ABA802279002A32
:105D1000F6D12671002B01D101235B4206AA107136
:105D200006936544EB880024D38002200823009466
:105D3000019402944821FEF72DFA231CA04202D0C0
:105D4000034B00E0034B18B209B0F0BD4C1000202B
:105D5000F2FF0000FAFF00001FB5041CFEF791F9E6
:105D6000C3B2402B0BD80021C0B2431C009101915B
:105D70000291221C4A210220FEF70CFA00E0FA20D0
:105D800040B204B010BD0000F0B599B01EAC24883C
:105D9000059400287DDB002B7BD0404E0501741953
:105DA00004940834A778FFB2012F72D102295AD186
:105DB00006286EDCE6783E426BD0012A08D11868CE
:105DC000E378002802D01943E1704AE08B430BE0EE
:105DD000032A0BD11868E2781023002802D013435D
:105DE000E3703EE09A43131CE37053E0042A0FD1A2
:105DF0001B68002B05D0294F40227D19EB7A1343F5
:105E000004E0264A5519EB7A40229343EB7228E0CE
:105E1000022A3ED1059C3F2C3BD8204E06AC207078
:105E20007519EA88059F191C00266280022508A8BA
:105E3000402265700797FEF713F9009601960296C7
:105E4000281C5121221C4823FEF7A4F9033008D155
:105E5000009601960296281CD121221C4823FEF7A9
:105E600099F9002016E01B6806AC6271049A207153
:105E70000693D3880220E3800023009301930293CA
:105E80004F21221C0823FEF785F9002802D0F720B5
:105E900000E0FA2040B219B0F0BDC0464C1000201E
:105EA00073B5061CFEF738FE294B0005000D0024D3
:105EB00098424BD9274801A9FFF71EF8041E45D187
:105EC000019B254D25492B40194322480191FFF79D
:105ED00017F82348211C002E20D0FFF711F8AB2122
:105EE0002048FFF70DF801211F48FFF709F8211C92
:105EF0001E48FFF705F81E488121FFF701F81D48ED
:105F0000FEF7F6FF0128FAD1019B80211D404902CE
:105F1000294310480191FEF7F3FF17E0FEF7F0FF69
:105F2000B9211048FEF7ECFF01210F48FEF7E8FF0A
:105F3000211C0E48FEF7E4FF0D488121FEF7E0FF2B
:105F40000C48FEF7D5FF0128FAD1DDE760B276BD37
:105F50009F03000010140000FF8F88F8001011014B
:105F6000080201000C020100140201001C020100E1
:105F70000402010018020100014B0833036070475E
:105F800080E6000010B5044B041C0833036001F0E8
:105F90006DF9201C10BDC04680E600000C4B70B5AA
:105FA0000833051C0360041C0B260021FF23201C62
:105FB00021716371A18121626162A1622C30102282
:105FC000013E06F011F83834002EEED1281C70BDC9
:105FD00080E6000010B5041C081C111C1A1CFFF7F9
:105FE0001BFD002806DB382343430122E3181A7106
:105FF000FF225A7110BD13B504AC01CC208800906B
:10600000081C111C1A1C049BFFF7BEFE16BD0000E5
:10601000F7B5071C0D1C161C081C111C1A1CFFF7D9
:106020006FFD002812DB38246C4302233C192371D6
:1060300000F05CFC01902379022B0AD100F056FCA1
:10604000019A114B801A984219D902E0002358B2E4
:10605000FEBD22790023032A02D001222271F6E735
:1060600038216943A381728876687F187A82191C67
:106070001A1C7E61281CFFF7C5FD0123E7E70020FD
:10608000FEF7E6FBD7E7C0461F4E000038B5041CFC
:1060900000200D1CFEF7DCFB38235D4364192079DA
:1060A000033843425841C0B238BD38B5041C002003
:1060B0000D1CFEF7CDFB38210B1C6B43E3181A793E
:1060C000032A02D00020052A05D14D4364190C2271
:1060D000985EA36AC01838BD38235A4310B5891892
:1060E000041C496901F05EF8201C10BD3823594397
:1060F0004018408A70470000F8B5041C00200E1CB0
:106100001D1C171CFEF7A4FB38237343E4182379E6
:106110000024032B22D1211C0520FEF72EFA022099
:10612000211CFEF72AFAAAB2301C391C0023FFF703
:106130001FFD002809DA0E3006D1094B1878002817
:1061400002D1FEF785FBEEE7002501210520FEF7D1
:1061500014FA02200121FEF710FA2C1C201CF8BDB5
:1061600090030020F8B50D1C38246C43061C34192C
:106170000020FEF76DFB2379032B01D0052B0AD1FC
:106180000C22A35E002B06DD0022A281101C111C34
:106190000123FEF777F9002323713827FF2363716A
:1061A0003B1C6B43F318186A002801D005F0F0FE81
:1061B000381C68430023321830181362536293620C
:1061C000191CA38110222C3005F00EFF281CFFF7AC
:1061D00055FDF8BDF7B538274F43C7193A6A3E1C3D
:1061E000041C0D1C18360192002A07D1B820C000EB
:1061F00005F0C4FE019BB060F060BB6238210E1C4C
:106200006E43A6190C22B35EB8221F1CD200934223
:1062100000DD171C4D43FB1A641959424B41DBB298
:10622000BAB2B068216AFEF72DF9251C0023183593
:10623000984209D1AB68EB60A762B268D319B3602A
:10624000B389DF1BB7810123181CFEBD70B50C1C80
:1062500038266643051CAE190020FEF7F9FA33799B
:10626000032B04D0052B02D0012040421CE0281C47
:10627000211CFFF71AFF0028F6D038236343EB18E0
:106280009B6A002B05D038235C432D196B6A187864
:106290000AE00C22B35E002BF5D0281C211CFFF76E
:1062A00099FF0028EFD1DFE770BDF0B5051C87B07E
:1062B00000200C1C01930592FEF7CAFA38236343B1
:1062C000EB1804931B79032B03D0052B01D000207E
:1062D0005DE0281C211CFFF7E8FE0028F7DD01998E
:1062E000814200DD019000220292019A002A10D022
:1062F00038236343EB189B6A002B11D104990C23BC
:10630000CB5E002B0CD0281C211CFFF763FF00285C
:1063100006D138236343ED18AB6A002B23D035E058
:106320003822131C6343EB189B6A019E9E4200DDDA
:106330001E1C6243AA18171C516A03920598321C4E
:1063400005F030FE7A6A93197B62039B996A8A1B77
:106350009A620299059A019B92199B1B89190592D1
:1063600001930291C1E7049902980C23CB5E002BA4
:106370000DD1201C191C1A1C062C02DCFFF742FC54
:1063800001E0FFF7ABFC0020FEF762FA029807B0CD
:10639000F0BD70B5051C501E0E1C1C1C082800D931
:1063A00081E002F0E9FF051080213C468080460034
:1063B000002B0AD00023E356002B06D138235E437E
:1063C0000523AD1905E0002B05D138235E430123D9
:1063D000AD192B7167E00023E356002BF5D138236C
:1063E0005E430723AD19F4E7002B5CD000229A56D8
:1063F000002A58DB38235A430821AA1811710022B9
:10640000A2565A43AA1856710022A2560434534386
:10641000ED18103507CC07C524682C6043E0002B2D
:10642000D3D05B787F2BD0D838235E430323AD19BC
:10643000CFE700210520FEF7A0F802200021FEF79B
:106440009CF8A28813B2002B04DC281C311CFFF737
:1064500089FE20E038237343EB181979032901D012
:10646000052912D120689A819860062E08DD38230C
:106470007343EB181033083407CC07C324681C603F
:10648000281C311CFFF7A6FE05E00020011C021CA1
:106490000123FDF7F7FF01210520FEF76EF802202A
:1064A0000121FEF76AF870BD38B5051C0C1C131CE1
:1064B000291C0248221CFFF76CFF38BDB4030020E2
:1064C00013B50023191C1A1C0093064800F05CFE4B
:1064D000054C201CFFF762FD201C0449044A05F00E
:1064E00009FD13BDAC030020B4030020795F000058
:1064F0000000002038B50D1C00F0F8F9041C451907
:1065000000F0F4F9A04201D3A842F9D938BD08B58A
:106510000122FFF7EFFF08BD08B500F0E7F908BD5D
:10652000002310B5436183680161C360041C00F05F
:10653000DDF9A06010BD000070B5041C0D1C00F05A
:10654000D5F91549061C606C00F0C4FE291C0A220E
:10655000606C00F048FF606C104900F0BBFE311C1D
:106560000A22606C00F035FF0D4D606C291C00F0B4
:10657000B1FEA3680A22F11A606C00F02AFF291C00
:10658000606C00F0A7FEA168E368606CC91A0A227B
:1065900000F01FFF70BDC04690E6000097E60000C7
:1065A000A3E2000008B5406C014900F0B9FE08BD47
:1065B0009BE6000010B5041C00F098F9A06010BD27
:1065C00010B5041C00290BD100F090F96368C01AC3
:1065D000182805D81921091A0122201CFFF78AFF63
:1065E00000F084F96060012010BD7047F8B5051C0B
:1065F0000E1C171C69641B24301C01F0F3FD0028DD
:1066000006D1013C002C03D0642000F075F9F3E7BB
:10661000686C391C01F0E4FDF8BD08B50023836403
:106620004360994201D0FFF772FF08BD406C08B586
:1066300003685B699847C0B208BD406C08B5036841
:106640001B699847C0B208BD38B5041C0D1C00F08A
:106650004DF909496060606C00F03CFE291C0A227B
:10666000606C00F0C0FE606C044900F033FE201C3A
:106670003221FFF74CFF38BDA2E60000A9E600007A
:1066800070B5037E051C0E1C6320002B22D0281C35
:10669000FFF7D3FF002801D165201BE0281CFFF77E
:1066A000CCFF0028F8D0281CFFF7C0FF682810D0C6
:1066B00008D858280BD06328F0D1281C311CFFF7CC
:1066C000C3FF06E0712804D07628E7D102E000235A
:1066D0002B76632070BD38B5041C151C002901D130
:1066E000257638BD01230376201C0021FFF7C8FF63
:1066F0006328F5D0201C0121FFF709FFF4E7000013
:10670000034B00229A60DA601A615A617047C046F2
:106710002006002008B5024801F088FA08BDC046EE
:106720006C06002008B5024801F080FA08BDC0469A
:10673000F0070020F7B5164F1649381C00F066FF29
:106740001549164800F062FF1549164800F05EFF33
:106750001549164800F05AFF1549164800F056FF33
:10676000154D03260124281C144900F04FFF391C45
:106770000096231C01940022114801F073F9009641
:10678000291C01941F221E230E4801F06BF9F7BD4E
:106790007809002000080042000C00427C0900201B
:1067A00000100042800900200014004274090020FB
:1067B000001800428409002088090020001C0042C3
:1067C0006C060020F007002043005B080220002B2D
:1067D00000D17047074A04209918074A9142F8D916
:1067E000064A591E03209142F3D9054A9B18584284
:1067F0005841EEE7000080FFFFFFFF7EFEFF7F00B5
:10680000000080800B1C011C021C30B519430220C3
:10681000002900D130BD802109068B4216D00D49D8
:1068200004205C180C498C42F4D90C4D5C198C4244
:10683000F0D90B4C590049080320A142EAD9074C72
:106840000020A142E6D150425041E3E7002AE1D0C6
:10685000EFE7C0460000F0FFFFFFDF7F0000F07FA2
:10686000FFFF0F00FEE7000008B5034B1B68002B7D
:1068700000D0984708BDC0468C09002038B50F49A4
:106880000F4CA14204D100F055F800F0CBFC0BE016
:106890000C4D8D42F7D00023CA18E818A24204D24A
:1068A000006804331060F7E7FEE79042EBD0064B38
:1068B000064A9342E7D2002204C3F9E70000002011
:1068C000D001002090EF0000D00100200C1100202A
:1068D00008B500F02CF8002801D100F01DF808BD23
:1068E000014B18607047C0468C090020014B1868A6
:1068F0007047C0469009002070B5041E08D0054BB3
:106900001D681E1C00F012F833685B1BA342F9D30C
:1069100070BDC0469009002008B5034B1A680132CB
:106920001A6000F039FE08BD900900207047002071
:106930007047000070B5494A1E21536802208B43FE
:106940000343474953608B69082423438B61454CBB
:10695000454B9C829C8A20439882101CDA689407DD
:10696000FCD5424A012414701478E50704D53F4C45
:10697000647864B2002CF7DB01249460547864B22C
:10698000002CFBDB3A4D394C6560547864B2002C26
:10699000FBDB8225354CED016580547864B2002C18
:1069A000FBDB02249C84DC68E606FCD5314D2E4CD2
:1069B000E562DD682C4CEE06FBD5A58C2E4E3543EA
:1069C000A584DD68284CEE06FBD5A58C0226354350
:1069D000A584DC682506FCD5234CE4686606F8D55A
:1069E000DC68E506FCD500249460547864B2002C81
:1069F000FBDB224D1D4C656055781C4C6DB2002DA3
:106A0000FADB1E6A1E4D35401D621D6A8026B543A5
:106A10001D620323A3601B4B636053785BB2002BA2
:106A2000FBDB00230B72184A4B728B72CB72174B35
:106A3000FF211A60164B174A1B6812685C01D20EC0
:106A4000214011439A06520F12020B1C1343124AA3
:106A50001385436880221343436070BD00400041AA
:106A6000000400400C06000000080040000C00403C
:106A700001050100B905FF7D040A000000070300BD
:106A8000FFFCFFFF03060100006CDC025800002041
:106A9000246080002060800000400042F7B5182389
:106AA00043430092504A1625D3185D57071C0191A5
:106AB000681C00D197E04D4B4D4C1E68002E27D12D
:106AC000311C44224B4805F08FFA311C44224A48BD
:106AD00005F08AFA494B4A4910221E60CA67494BA1
:106AE000C02149005A50C12189005858FF26B0439F
:106AF00058501A60444A454B5A8023780222134367
:106B000023706378DB09012BFBD0384B01221A601C
:106B100001226169161CAE40314361610199344B19
:106B2000002960D0102D1ED1D9780A43DA70009A5E
:106B3000042A14D8101CA27807239A43131C02F0CD
:106B40001BFC030507090B00052206E0042204E0F4
:106B5000032202E0022200E001221343A370264B2D
:106B6000019818643DE0381C002100F083FA234AA4
:106B700000231168171C8C461E499A00634504D0F7
:106B80008858B04203D00133F6E701333B608E50A2
:106B9000194B01999950072D03DD083DAD000123E4
:106BA00001E0AD000023124A9B009B189A6907215F
:106BB000A94000988A439A61042812D89A6902F081
:106BC000DBFB030507090B00052106E0042104E0B7
:106BD000032102E0022100E00121A9400D1C154320
:106BE0009D61B6B2E660F7BDFCE60000200A002019
:106BF00000180040D8090020940900201C0A002039
:106C000004E100E000E100E005400000000C00406D
:106C1000182358431B4B16221818825670B5531C64
:106C20002ED0194B102A04D19978072081439970EE
:106C300006E00121914088B2986058698843586104
:106C400012480123934001681A1C051C00238B4243
:106C500016D00F489C002458944201D00133F6E727
:106C60004A1E93420BD201339A0086588418043C82
:106C70002660084C1659A218043A1660F0E72A60FC
:106C800070BDC046FCE60000001800401C0A002051
:106C9000D809002094090020F8B50024094B1B688E
:106CA0009C420DD2084E094FA5003369EA591A4299
:106CB00004D0074BEB589847EB5933610134EDE7AB
:106CC000F8BDC0461C0A002000180040D80900206A
:106CD0009409002008B5054B1B6C002B00D0984789
:106CE000034B0121DA780A43DA7008BD94090020C9
:106CF00000180040314BFA21186810B5890002F0E5
:106D000045FB2F4B0138984224D82E4A2E4B506019
:106D1000186AC0210002000A090601431962002412
:106D2000072194601160196A80220902090A12067B
:106D30000A431A62254BFC211A6A0A431A62196A2D
:106D4000FC2292010A431A62196AA022D2020A4363
:106D50001A6200E0FEE7201C0021013400F0E8F890
:106D6000142CF8D11A4C63785BB2002BFADB194B68
:106D70006380194B5A7ED209012AFAD0C8229200A8
:106D80009A800522DA70597E134AC9090129FAD07E
:106D9000C0235B0100201361907000F023F863783A
:106DA0005BB2002BFBDB0D4A094B5A800C4BDA79A6
:106DB000D209012AFAD041225A7010BD5800002091
:106DC000FFFFFF0010E000E000ED00E000040040E5
:106DD000000C00401E400000004000422140000026
:106DE0000048004200B5144A517E131CC90901290C
:106DF000F9D00138042813D81969104A0A401A61D9
:106E00005A780F218A4302F0B7FA030509070300F5
:106E1000012102E0032100E002210A435A700AE046
:106E20001169F0231B050B43136153780F218B432A
:106E300002210B43537000BD00400042FFFFFFF0F2
:106E400010B5041E062C05D0072805D0052804D847
:106E50000E3402E02C2400E02D24201C012100F03F
:106E600009F90E2C0CD12D4BDA79D209012AFAD06E
:106E70001A7802218A431A70DA79D209012AFBD0E2
:106E8000274B5A7ED209012AFAD018225443254AA8
:106E900018691419217C1F2290431140021C0A43D7
:106EA0001A61597E1E4AC9090129FAD011780220B7
:106EB00001431170597E1A4AC9090129FAD0117B80
:106EC00002200143117301211176597E144AC90928
:106ED0000129FAD0117B0220014311731A7ED107D8
:106EE000FCD50F4A508B80B2597E0D4AC909012941
:106EF000FAD011780224A14311705A7ED209012AD6
:106F0000FBD0094B094A1B681268934205D002D98D
:106F10009B1AD84001E0D31A984010BD00480042A7
:106F200000400042FCE600005C0000206000002001
:106F300010B51824021C201C5043274B1818007A47
:106F400040B2013046D0032944D8081C211C02F06D
:106F500013FA02331121624398569A18C3011F484D
:106F600052681B1899184031022008700121914085
:106F700059602FE06243985618499A185268C30125
:106F80005B18991840310620087001219140596022
:106F900099611FE051435A56104859184B68D20165
:106FA0001118C81840300624047001209840486029
:106FB0000B49521850600DE0624398569A18C3016D
:106FC000064852681B1899184031022008700121A8
:106FD0009140996010BDC046FCE6000000440041AD
:106FE0001044004118235843134AF0B513180824DD
:106FF0001C5701341FD08256104ED2015D68012407
:107000009019231C8668AB401E420BD10E1C771EC4
:10701000BE41401934404030A50004780426B443F2
:107020002C430470002903D105495218536002E033
:10703000024E92199361F0BDFCE60000004400414D
:107040001044004118235843084A08211318595680
:10705000013109D082560649D20152185B68106A84
:10706000D8400123184000E000207047FCE60000F3
:10707000004400411822424370B52D4D0824AA183F
:107080001457031C621C51D0481C00240C284DD8F6
:1070900002F072F9071E1E1E1E1E1E1E1E0A0A0A7E
:1070A0000A000124644241E0092902D1181C002190
:1070B00003E00A2904D1181C0221FFF739FF23E05D
:1070C00000240B2932D1181C0121FFF731FF2DE0DC
:1070D00018225343EA185268EB5601241440500812
:1070E000DB01002C12D0134C1B1918183030057816
:1070F0000C010F2129402143C9B29A180170403276
:10710000137841210B43137000240FE0094D0F2623
:107110005B191818303005789A18B5432943C9B25D
:1071200001704032137841210B431370201C70BD55
:10713000FCE6000000440041FEE7F7B500240190A2
:107140000D1C261C019A281C131919790A2200F01B
:107150004AF92E21071C281C00F0C0F80134C71979
:10716000F619032CEED1019B281CD9790A2200F0D4
:107170003AF93018FEBD0000024B083303600023CB
:107180004360704750EB000030B503AC044D2478E9
:1071900008350560017142718371C47130BDC0460C
:1071A00050EB0000024B4160083303607047C0465B
:1071B00050EB0000002230B5131C051C0C78002C8D
:1071C00016D0201C30380131092807D80A20434343
:1071D000303B1B199BB2FF2BF0D90FE02E2C0DD1A9
:1071E000032A0BD0501CAA181371C2B20023E5E782
:1071F000201C032A03D1EB71012000E0002030BDE8
:1072000041607047044A054B08321A6000221A7127
:107210005A719A71DA71704750EB0000240A00200D
:107220007047000010B5FFF765FD04F081FEFFF721
:10723000F7FF0120FFF760FB084C201C01F00CFA5F
:10724000201C01F081FAFAF7D1FFFBF7B1FA044BE9
:10725000002BFAD000E000BFF7E7C046F70E002091
:107260000000000008B504F089FE08BD08B504F070
:107270008FFE08BDF7B58A18061C0D1C01920C1C68
:10728000019B671B9C4207D0336821781B68301C28
:10729000984701340028F3D1381CFEBD08B50368B7
:1072A000C9B21B68984708BD38B5051C0C1C081EE0
:1072B00007D004F085FF2B68021C5B68281C211C8A
:1072C000984738BD10B504680B1C9A680968636854
:1072D000984710BD08B5FFF7E7FF08BD08B503687C
:1072E0001B68984708BD000008B50249FFF7DCFF9E
:1072F00008BDC046AFE6000038B5041CFFF7D4FF58
:10730000051C201CFFF7F0FF281838BD38B5041CF9
:10731000FFF7D8FF051C201CFFF7E6FF401938BD1A
:1073200038B5041CFFF7C0FF051C201CFFF7DCFF6D
:10733000281838BDF0B58DB0161C0BAB002201909B
:107340000C1C1A70012E00D80A266D462B35201C05
:10735000311C02F05FF8201CCFB2311C02F016F88D
:10736000291C041C092F01D8303700E03737FFB241
:107370002F70013D002CEAD10198FFF795FF0DB069
:10738000F0BDF8B5041C0D1C161E04D10368C9B26B
:107390001B68984712E00A2A0DD100290ADA2D212C
:1073A000FFF79CFF6942071C321C201CFFF7C2FF3D
:1073B000C01903E000E0D2B2FFF7BCFFF8BD38B55A
:1073C000041CFFF7DEFF051C201CFFF78DFF2818AB
:1073D00038BD08B5002A02D1FFF760FF02E0D2B243
:1073E000FFF7A8FF08BD08B5FFF7F3FF08BD0000D1
:1073F000F7B51C1C08AB1B78071C211C101C151CA6
:107400000093FFF7FFF9002802D1381C504907E02C
:10741000281C211CFFF7F6F9012804D14D49381C1E
:10742000FFF742FF7CE0281C211C404B3E4A02F043
:1074300087F8002802D0381C4749F1E7281C211C96
:107440003B4A3C4B02F068F80028F4D1281C211C70
:10745000394A3A4B02F060F8002808D02D21381C38
:10746000FFF73CFF802109060190641800E00190BD
:107470000026334A334B00998E420AD0101C191C47
:10748000314A324B03F070F90136021C0B1CF6B284
:10749000F1E7281C211C02F04BFE0D1C041C02F01D
:1074A0009FF8061C04F0F6FB0B1C021C291C201C78
:1074B00004F054F80A22041C0D1C381C311CFFF780
:1074C00039FF019B0099C618002904D0381C2E21D1
:1074D000FFF704FF3618009B002B20D01A4A1B4BE5
:1074E000201C291C03F0AAFD0D1C041C02F078F8D6
:1074F00001900A220199381CFFF71CFF36180198E9
:1075000004F0C8FB0B1C021C291C201C04F026F8EC
:10751000009B041C013BDBB20D1C0093DBE7301C1D
:10752000FEBDC046C046C046000000E0FFFFEF4180
:10753000000000E0FFFFEFC10000000000000000BD
:10754000000000000000E03F0000000000002440B8
:1075500060EB000064EB000068EB0000C046C04632
:1075600037B5041C0698C1B20091201CFFF740FFFC
:10757000051C201CFFF7B8FE28183EBD014B186003
:107580007047C04664000020024B012252421A603C
:107590007047C04664000020154A1368581C25D067
:1075A000013B1360002B21D172B6124A124B0432F8
:1075B0009A4207D8BFF34F8F104A114BDA60BFF3DE
:1075C0004F8F11E00F4B197DC807FBD5188B202179
:1075D000FF319208520001431983DA610A4A1A8086
:1075E0001A7DD107FCD5E5E7C046FDE77047C046E8
:1075F0006400002000200000030200000400FA05DF
:1076000000ED00E00040004102A5FFFF016070476F
:10761000F7B508AC267804689D1E27686C1EA54146
:10762000ECB2920705683A4327063A432A6002689B
:10763000072529405068B501002C00D05C03294380
:1076400001430C435460F7BD30B50368C0251C6886
:10765000AD0312052A402243C024A402090421409C
:107660001143196003685A6814435C6030BD0368B5
:1076700001211A680A431A6002681168012319423D
:10768000FBD1D1691942F8D17047036802211A6809
:107690000A431A600268D3699907FCD470470368EB
:1076A0001A7ED10702D41A7E9107FCD57047036871
:1076B00000225A8370470368187E4007C00F704746
:1076C0000368187EC009704703688022197E524201
:1076D0000A431A7670470368588B8007C00F7047BB
:1076E000036802215A8B0A435A8370470368187E45
:1076F0000123184070470368188DC0B270470368B3
:107700001A7E01200242FBD01985704703680122CE
:107710009A757047036801221A75704770B503683F
:1077200001268D07ED0F31401C686D0709072943BD
:107730002143196004685100034801F027FE013815
:10774000C0B2207370BDC046006CDC02036801212A
:107750001A680A431A600268116801231942FBD1B2
:10776000D1691942F8D17047036802211A680A43A7
:107770001A600268D3699907FCD470470368DA6914
:107780009107FCD41A6802218A431A607047036883
:107790009A6A520A52021143996203681A7E51078B
:1077A000FCD5986AC0B270470368244AF0B593428A
:1077B00011D0234A934211D0224A934211D0224A37
:1077C000934211D0214A934211D0214A934233D19E
:1077D00019220E230DE0142209230AE015220A23A0
:1077E00007E016220B2304E017220C2301E01822E5
:1077F0000D23DEB217490120C024B04064009B086D
:10780000085103259B00C0245B18A4002E401F597B
:10781000F500FF26AE40B7433E1CC027AF403D1CDD
:1078200035431D518023DB011A430B4B08605A80FE
:107830005A7852B2002AFBDBF0BDC0460008004275
:10784000000C0042001000420014004200180042E8
:10785000001C004200E100E0000C0040F8B5041CF0
:10786000151C0E1C1F1CFFF79FFF201CFFF7FFFEBF
:10787000B1001C220A4069072368090C0A431A60F8
:10788000226884239375012E1AD10821012D00D17D
:1078900010210C4B79431868C00001F077FD236874
:1078A00007219A890140D2044903D20C0A439A81E4
:1078B00023680004C20C9889400B40031043988150
:1078C000F8BDC04658000020F7B5019308AB041C72
:1078D0001F780D1C161CFFF739FF201CFFF764FFF3
:1078E000BF070C221743C022920336051640C02260
:1078F00092022D042368154001993E433543072227
:107900001D600A408021236889020A435A60226868
:10791000D3695907FCD4F7BD10B5041CFEF7E6FF88
:10792000E0602368201C5B699847002808DAFEF7AE
:10793000DDFFE368C01AA3689842F2D301204042F9
:1079400010BD000038B50D1C0749041C00F0C0FA3A
:10795000281CFFF7E1FF002804DBC1B2201C00F067
:1079600035FBF5E7201C38BDB1E60000012070476B
:1079700008B50368014A1B6A984708BD1304000054
:10798000031C021CBC33B83219681268914203D040
:107990001B68C018007D01E001204042704710B50F
:1079A000041C0069FFF763FE221CB2210023B832D9
:1079B00049001360536062186934FF341360236018
:1079C00010BD0000F0B587B001930CAB1B7800250B
:1079D00002930DAB1B78A42603930EAB1B78041CFB
:1079E00004930FAB1B780F1C0593FA239B00836055
:1079F0001B4B0092083345600360291C321C143075
:107A000004F0F2FA231CB833201C1D60321C5D60A8
:107A1000291CC03004F0E8FAB2225200A318B422A4
:107A200052001D60A3181D60009AB6235B002761F9
:107A3000E254019A6E23FF33E254029AB7235B00AB
:107A4000E254039A7023FF33E254049AB8235B0094
:107A5000E254059AC0235B00201CE25407B0F0BD3D
:107A600070EB000030B585B0041C08A8057809A8A3
:107A7000007800950190FF2002900390201CFFF7F2
:107A8000A1FF201C05B030BDF023081C1840303881
:107A9000434258417047F0231B01194080239B004B
:107AA00099420CD0C0239B00994206D080235B00F2
:107AB0000520994204D0002002E0072000E00620C3
:107AC00070470F231940012905D002394B424B4121
:107AD0000220C01A00E0002070470000F0B5B62375
